{
  "contractName": "MyContract",
  "abi": [
    {
      "inputs": [],
      "payable": false,
      "stateMutability": "nonpayable",
      "type": "constructor"
    },
    {
      "constant": false,
      "inputs": [
        {
          "name": "str1",
          "type": "string"
        }
      ],
      "name": "set",
      "outputs": [
        {
          "name": "",
          "type": "string"
        },
        {
          "name": "",
          "type": "uint256"
        }
      ],
      "payable": false,
      "stateMutability": "nonpayable",
      "type": "function"
    },
    {
      "constant": false,
      "inputs": [
        {
          "name": "str1",
          "type": "string"
        }
      ],
      "name": "read",
      "outputs": [
        {
          "name": "",
          "type": "string"
        },
        {
          "name": "",
          "type": "uint256"
        }
      ],
      "payable": false,
      "stateMutability": "nonpayable",
      "type": "function"
    },
    {
      "constant": false,
      "inputs": [
        {
          "name": "label",
          "type": "bytes32[]"
        },
        {
          "name": "fid",
          "type": "bytes32[]"
        },
        {
          "name": "ram",
          "type": "bytes32[]"
        }
      ],
      "name": "storelabel",
      "outputs": [
        {
          "name": "",
          "type": "string"
        },
        {
          "name": "",
          "type": "bytes32"
        }
      ],
      "payable": false,
      "stateMutability": "nonpayable",
      "type": "function"
    },
    {
      "constant": false,
      "inputs": [
        {
          "name": "labeladd",
          "type": "bytes32[]"
        },
        {
          "name": "fid",
          "type": "uint256[]"
        },
        {
          "name": "revid",
          "type": "bytes32[]"
        }
      ],
      "name": "updateadd",
      "outputs": [
        {
          "name": "",
          "type": "uint256[]"
        },
        {
          "name": "",
          "type": "uint256"
        },
        {
          "name": "",
          "type": "uint256"
        }
      ],
      "payable": false,
      "stateMutability": "nonpayable",
      "type": "function"
    },
    {
      "constant": false,
      "inputs": [],
      "name": "read_r_value",
      "outputs": [
        {
          "name": "aa",
          "type": "uint256[50]"
        }
      ],
      "payable": false,
      "stateMutability": "nonpayable",
      "type": "function"
    },
    {
      "constant": false,
      "inputs": [
        {
          "name": "revid",
          "type": "bytes32[]"
        }
      ],
      "name": "updatedel",
      "outputs": [
        {
          "name": "True",
          "type": "bool"
        }
      ],
      "payable": false,
      "stateMutability": "nonpayable",
      "type": "function"
    },
    {
      "constant": false,
      "inputs": [
        {
          "name": "K1",
          "type": "string"
        },
        {
          "name": "K2",
          "type": "string"
        },
        {
          "name": "c",
          "type": "uint256"
        }
      ],
      "name": "searchfile",
      "outputs": [
        {
          "name": "",
          "type": "bytes32[50]"
        },
        {
          "name": "",
          "type": "uint256"
        }
      ],
      "payable": false,
      "stateMutability": "nonpayable",
      "type": "function"
    },
    {
      "constant": false,
      "inputs": [
        {
          "name": "K1_add",
          "type": "string"
        },
        {
          "name": "K_minus",
          "type": "string"
        }
      ],
      "name": "searchfile_add",
      "outputs": [
        {
          "name": "",
          "type": "uint256[50]"
        },
        {
          "name": "",
          "type": "uint256"
        }
      ],
      "payable": false,
      "stateMutability": "nonpayable",
      "type": "function"
    },
    {
      "constant": false,
      "inputs": [
        {
          "name": "str",
          "type": "string"
        }
      ],
      "name": "getindex",
      "outputs": [
        {
          "name": "",
          "type": "bytes32"
        }
      ],
      "payable": false,
      "stateMutability": "nonpayable",
      "type": "function"
    },
    {
      "constant": false,
      "inputs": [
        {
          "name": "hash",
          "type": "bytes32"
        }
      ],
      "name": "hashtostr32",
      "outputs": [
        {
          "name": "",
          "type": "string"
        }
      ],
      "payable": false,
      "stateMutability": "nonpayable",
      "type": "function"
    },
    {
      "constant": false,
      "inputs": [
        {
          "name": "num",
          "type": "uint256"
        }
      ],
      "name": "asciitostring",
      "outputs": [
        {
          "name": "",
          "type": "uint256"
        }
      ],
      "payable": false,
      "stateMutability": "nonpayable",
      "type": "function"
    },
    {
      "constant": true,
      "inputs": [
        {
          "name": "value",
          "type": "uint256"
        }
      ],
      "name": "uintToString",
      "outputs": [
        {
          "name": "",
          "type": "string"
        }
      ],
      "payable": false,
      "stateMutability": "view",
      "type": "function"
    },
    {
      "constant": false,
      "inputs": [
        {
          "name": "input",
          "type": "bytes32"
        }
      ],
      "name": "Bytes32toString",
      "outputs": [
        {
          "name": "",
          "type": "string"
        }
      ],
      "payable": false,
      "stateMutability": "nonpayable",
      "type": "function"
    },
    {
      "constant": false,
      "inputs": [
        {
          "name": "key",
          "type": "bytes32"
        },
        {
          "name": "c",
          "type": "uint256"
        }
      ],
      "name": "hmac",
      "outputs": [
        {
          "name": "digest",
          "type": "string"
        }
      ],
      "payable": false,
      "stateMutability": "nonpayable",
      "type": "function"
    },
    {
      "constant": false,
      "inputs": [
        {
          "name": "key",
          "type": "bytes32"
        },
        {
          "name": "ram",
          "type": "bytes32"
        }
      ],
      "name": "hmac10",
      "outputs": [
        {
          "name": "digest",
          "type": "bytes32"
        }
      ],
      "payable": false,
      "stateMutability": "nonpayable",
      "type": "function"
    },
    {
      "constant": false,
      "inputs": [
        {
          "name": "t",
          "type": "uint256"
        }
      ],
      "name": "stringtobyte",
      "outputs": [
        {
          "name": "",
          "type": "uint256"
        }
      ],
      "payable": false,
      "stateMutability": "nonpayable",
      "type": "function"
    },
    {
      "constant": false,
      "inputs": [
        {
          "name": "source",
          "type": "string"
        }
      ],
      "name": "stringToBytes32",
      "outputs": [
        {
          "name": "",
          "type": "bytes32"
        }
      ],
      "payable": false,
      "stateMutability": "nonpayable",
      "type": "function"
    },
    {
      "constant": false,
      "inputs": [
        {
          "name": "inc",
          "type": "bytes32"
        }
      ],
      "name": "ciphertobytes32",
      "outputs": [
        {
          "name": "",
          "type": "bytes32"
        }
      ],
      "payable": false,
      "stateMutability": "nonpayable",
      "type": "function"
    }
  ],
  "bytecode": "0x60806040527f36363636363636363636363636363636363636363636363636363636363636366001026034906000191690557f5c5c5c5c5c5c5c5c5c5c5c5c5c5c5c5c5c5c5c5c5c5c5c5c5c5c5c5c5c5c5c5c6001026035906000191690553480156200006b57600080fd5b506040805190810160405280600981526020017f636f6e7374727563740000000000000000000000000000000000000000000000815250603a60405180807f6875000000000000000000000000000000000000000000000000000000000000815250600201905090815260200160405180910390209080519060200190620000f592919062000190565b506040805190810160405280600681526020017f7472617465610000000000000000000000000000000000000000000000000000815250603a60405180807f67797400000000000000000000000000000000000000000000000000000000008152506003019050908152602001604051809103902090805190602001906200017f92919062000190565b50620d8daa6001819055506200023f565b828054600181600116156101000203166002900490600052602060002090601f016020900481019282601f10620001d357805160ff191683800117855562000204565b8280016001018555821562000204579182015b8281111562000203578251825591602001919060010190620001e6565b5b50905062000213919062000217565b5090565b6200023c91905b80821115620002385760008160009055506001016200021e565b5090565b90565b6133d8806200024f6000396000f3006080604052600436106100fc576000357c0100000000000000000000000000000000000000000000000000000000900463ffffffff168063128b4d7f146101015780631d0ffb24146101fd57806324a5e0811461023e5780632f26f3c1146103305780634ad6765d146103b55780634ed3885e14610504578063616ffe83146105ed5780637efd5848146106d657806396a30b901461078a5780639b1e081f146107d75780639f740bd714610818578063be4a508414610896578063bf24b384146108f1578063cfb5192814610944578063d50e0fd2146109c9578063e081382314610b3d578063e939567914610be7578063fe96718914610c8d575b600080fd5b34801561010d57600080fd5b506101b8600480360381019080803590602001908201803590602001908080601f0160208091040260200160405190810160405280939291908181526020018383808284378201915050505050509192919290803590602001908201803590602001908080601f016020809104026020016040519081016040528093929190818152602001838380828437820191505050505050919291929080359060200190929190505050610d37565b6040518083603260200280838360005b838110156101e35780820151818401526020810190506101c8565b505050509050018281526020019250505060405180910390f35b34801561020957600080fd5b5061022860048036038101908080359060200190929190505050610f62565b6040518082815260200191505060405180910390f35b34801561024a57600080fd5b506102eb600480360381019080803590602001908201803590602001908080601f0160208091040260200160405190810160405280939291908181526020018383808284378201915050505050509192919290803590602001908201803590602001908080601f0160208091040260200160405190810160405280939291908181526020018383808284378201915050505050509192919290505050610fa8565b6040518083603260200280838360005b838110156103165780820151818401526020810190506102fb565b505050509050018281526020019250505060405180910390f35b34801561033c57600080fd5b50610397600480360381019080803590602001908201803590602001908080601f01602080910402602001604051908101604052809392919081815260200183838082843782019150505050505091929192905050506111f2565b60405180826000191660001916815260200191505060405180910390f35b3480156103c157600080fd5b5061049f600480360381019080803590602001908201803590602001908080602002602001604051908101604052809392919081815260200183836020028082843782019150505050505091929192908035906020019082018035906020019080806020026020016040519081016040528093929190818152602001838360200280828437820191505050505050919291929080359060200190820180359060200190808060200260200160405190810160405280939291908181526020018383602002808284378201915050505050509192919290505050611267565b6040518080602001848152602001838152602001828103825285818151815260200191508051906020019060200280838360005b838110156104ee5780820151818401526020810190506104d3565b5050505090500194505050505060405180910390f35b34801561051057600080fd5b5061056b600480360381019080803590602001908201803590602001908080601f01602080910402602001604051908101604052809392919081815260200183838082843782019150505050505091929192905050506115df565b6040518080602001838152602001828103825284818151815260200191508051906020019080838360005b838110156105b1578082015181840152602081019050610596565b50505050905090810190601f1680156105de5780820380516001836020036101000a031916815260200191505b50935050505060405180910390f35b3480156105f957600080fd5b50610654600480360381019080803590602001908201803590602001908080601f01602080910402602001604051908101604052809392919081815260200183838082843782019150505050505091929192905050506117ab565b6040518080602001838152602001828103825284818151815260200191508051906020019080838360005b8381101561069a57808201518184015260208101905061067f565b50505050905090810190601f1680156106c75780820380516001836020036101000a031916815260200191505b50935050505060405180910390f35b3480156106e257600080fd5b5061070f6004803603810190808035600019169060200190929190803590602001909291905050506118c2565b6040518080602001828103825283818151815260200191508051906020019080838360005b8381101561074f578082015181840152602081019050610734565b50505050905090810190601f16801561077c5780820380516001836020036101000a031916815260200191505b509250505060405180910390f35b34801561079657600080fd5b506107b96004803603810190808035600019169060200190929190505050611a7f565b60405180826000191660001916815260200191505060405180910390f35b3480156107e357600080fd5b5061080260048036038101908080359060200190929190505050611f92565b6040518082815260200191505060405180910390f35b34801561082457600080fd5b5061087c60048036038101908080359060200190820180359060200190808060200260200160405190810160405280939291908181526020018383602002808284378201915050505050509192919290505050611fd8565b604051808215151515815260200191505060405180910390f35b3480156108a257600080fd5b506108d36004803603810190808035600019169060200190929190803560001916906020019092919050505061210f565b60405180826000191660001916815260200191505060405180910390f35b3480156108fd57600080fd5b50610906612280565b6040518082603260200280838360005b83811015610931578082015181840152602081019050610916565b5050505090500191505060405180910390f35b34801561095057600080fd5b506109ab600480360381019080803590602001908201803590602001908080601f01602080910402602001604051908101604052809392919081815260200183838082843782019150505050505091929192905050506122cb565b60405180826000191660001916815260200191505060405180910390f35b3480156109d557600080fd5b50610ab360048036038101908080359060200190820180359060200190808060200260200160405190810160405280939291908181526020018383602002808284378201915050505050509192919290803590602001908201803590602001908080602002602001604051908101604052809392919081815260200183836020028082843782019150505050505091929192908035906020019082018035906020019080806020026020016040519081016040528093929190818152602001838360200280828437820191505050505050919291929050505061287a565b60405180806020018360001916600019168152602001828103825284818151815260200191508051906020019080838360005b83811015610b01578082015181840152602081019050610ae6565b50505050905090810190601f168015610b2e5780820380516001836020036101000a031916815260200191505b50935050505060405180910390f35b348015610b4957600080fd5b50610b6c6004803603810190808035600019169060200190929190505050612af7565b6040518080602001828103825283818151815260200191508051906020019080838360005b83811015610bac578082015181840152602081019050610b91565b50505050905090810190601f168015610bd95780820380516001836020036101000a031916815260200191505b509250505060405180910390f35b348015610bf357600080fd5b50610c1260048036038101908080359060200190929190505050612d66565b6040518080602001828103825283818151815260200191508051906020019080838360005b83811015610c52578082015181840152602081019050610c37565b50505050905090810190601f168015610c7f5780820380516001836020036101000a031916815260200191505b509250505060405180910390f35b348015610c9957600080fd5b50610cbc60048036038101908080356000191690602001909291905050506131af565b6040518080602001828103825283818151815260200191508051906020019080838360005b83811015610cfc578082015181840152602081019050610ce1565b50505050905090810190601f168015610d295780820380516001836020036101000a031916815260200191505b509250505060405180910390f35b610d3f61327f565b600060606000610d4d61327f565b6000806000606060009550610d618c6122cb565b9350610d6c8b6122cb565b92505b610d79848b6118c2565b9650610def6037886040518082805190602001908083835b602083101515610db65780518252602082019150602081019050602083039250610d91565b6001836020036101000a038019825116818451168082178552505050505050905001915050908152602001604051809103902054611a7f565b610e6484603b8a6040518082805190602001908083835b602083101515610e2b5780518252602082019150602081019050602083039250610e06565b6001836020036101000a03801982511681845116808217855250505050505090500191505090815260200160405180910390205461210f565b188587603281101515610e7357fe5b6020020190600019169081600019168152505089806001019a505085806001019650506000600102603b886040518082805190602001908083835b602083101515610ed35780518252602082019150602081019050602083039250610eae565b6001836020036101000a0380198251168184511680821785525050505050509050019150509081526020016040518091039020546000191614158015610f1a5750602f8611155b15610f2457610d6f565b60006001028560018803603281101515610f3a57fe5b60200201906000191690816000191681525050848a9850985050505050505050935093915050565b600081600011158015610f76575060098211155b15610f82576030820191505b81600a11158015610f945750600f8211155b15610fa0576057820191505b819050919050565b610fb06132a3565b6000806000606080610fc06132a3565b60008060009650610fd08b6122cb565b9150610fdb8a6122cb565b90505b610fe882886118c2565b94506038856040518082805190602001908083835b6020831015156110225780518252602082019150602081019050602083039250610ffd565b6001836020036101000a038019825116818451168082178552505050505050905001915050908152602001604051809103902054955061106281876118c2565b935060006039856040518082805190602001908083835b60208310151561109e5780518252602082019150602081019050602083039250611079565b6001836020036101000a038019825116818451168082178552505050505050905001915050908152602001604051809103902054141561115c576038856040518082805190602001908083835b60208310151561111057805182526020820191506020810190506020830392506110eb565b6001836020036101000a038019825116818451168082178552505050505050905001915050908152602001604051809103902054838860328110151561115257fe5b6020020181815250505b868060010197505060006038866040518082805190602001908083835b60208310151561119e5780518252602082019150602081019050602083039250611179565b6001836020036101000a0380198251168184511680821785525050505050509050019150509081526020016040518091039020541415156111de57610fde565b828798509850505050505050509250929050565b60006037826040518082805190602001908083835b60208310151561122c5780518252602082019150602081019050602083039250611207565b6001836020036101000a0380198251168184511680821785525050505050509050019150509081526020016040518091039020549050919050565b60606000806112746132a3565b6060806000606060008060008094506040805190810160405280602081526020017f61646636643337636564376236363137393637346231643930303961333664328152509350600092505b8d518360ff161015611545576112ef8c8460ff168151811015156112e057fe5b906020019060200201516131af565b955060006039876040518082805190602001908083835b60208310151561132b5780518252602082019150602081019050602083039250611306565b6001836020036101000a03801982511681845116808217855250505050505090500191505090815260200160405180910390205414156114a7576000888660328110151561137557fe5b6020020181815250506113a18e8460ff1681518110151561139257fe5b906020019060200201516131af565b96508c858151811015156113b157fe5b906020019060200201516038886040518082805190602001908083835b6020831015156113f357805182526020820191506020810190506020830392506113ce565b6001836020036101000a03801982511681845116808217855250505050505090500191505090815260200160405180910390208190555060008514156114a2576038876040518082805190602001908083835b60208310151561146b5780518252602082019150602081019050602083039250611446565b6001836020036101000a03801982511681845116808217855250505050505090500191505090815260200160405180910390205491505b611532565b600188866032811015156114b757fe5b60200201818152505060006039876040518082805190602001908083835b6020831015156114fa57805182526020820191506020810190506020830392506114d5565b6001836020036101000a0380198251168184511680821785525050505050509050019150509081526020016040518091039020819055505b84806001019550506002830192506112c0565b8760029060326115569291906132c7565b506038846040518082805190602001908083835b60208310151561158f578051825260208201915060208101905060208303925061156a565b6001836020036101000a03801982511681845116808217855250505050505090500191505090815260200160405180910390205490508c81839a509a509a50505050505050505093509350939050565b606060006040805190810160405280600481526020017f7374723100000000000000000000000000000000000000000000000000000000815250603a846040518082805190602001908083835b602083101515611651578051825260208201915060208101905060208303925061162c565b6001836020036101000a03801982511681845116808217855250505050505090500191505090815260200160405180910390209080519060200190611697929190613307565b50603a836040518082805190602001908083835b6020831015156116d057805182526020820191506020810190506020830392506116ab565b6001836020036101000a0380198251168184511680821785525050505050509050019150509081526020016040518091039020600154818054600181600116156101000203166002900480601f01602080910402602001604051908101604052809291908181526020018280546001816001161561010002031660029004801561179b5780601f106117705761010080835404028352916020019161179b565b820191906000526020600020905b81548152906001019060200180831161177e57829003601f168201915b5050505050915091509150915091565b60606000603a836040518082805190602001908083835b6020831015156117e757805182526020820191506020810190506020830392506117c2565b6001836020036101000a0380198251168184511680821785525050505050509050019150509081526020016040518091039020600154818054600181600116156101000203166002900480601f0160208091040260200160405190810160405280929190818152602001828054600181600116156101000203166002900480156118b25780601f10611887576101008083540402835291602001916118b2565b820191906000526020600020905b81548152906001019060200180831161189557829003601f168201915b5050505050915091509150915091565b60608060006060600080606060006118d989612d66565b96506034548a1895506118eb866131af565b9450600285886040518083805190602001908083835b6020831015156119265780518252602082019150602081019050602083039250611901565b6001836020036101000a03801982511681845116808217855250505050505090500182805190602001908083835b6020831015156119795780518252602082019150602081019050602083039250611954565b6001836020036101000a038019825116818451168082178552505050505050905001925050506020604051808303816000865af11580156119be573d6000803e3d6000fd5b5050506040513d60208110156119d357600080fd5b810190808051906020019092919050505093506035548a1892506119f6836131af565b9150600283856040518083600019166000191681526020018260001916600019168152602001925050506020604051808303816000865af1158015611a3f573d6000803e3d6000fd5b5050506040513d6020811015611a5457600080fd5b81019080805190602001909291905050509050611a7081612af7565b97505050505050505092915050565b60008060606000806000806000600102955060026040519080825280601f01601f191660200182016040528015611ac55781602001602082028038833980820191505090505b509450601f90505b60018160ff161115611d3f57876001820360ff16602081101515611aed57fe5b1a7f010000000000000000000000000000000000000000000000000000000000000002856000815181101515611b1f57fe5b9060200101907effffffffffffffffffffffffffffffffffffffffffffffffffffffffffffff1916908160001a905350878160ff16602081101515611b6057fe5b1a7f010000000000000000000000000000000000000000000000000000000000000002856001815181101515611b9257fe5b9060200101907effffffffffffffffffffffffffffffffffffffffffffffffffffffffffffff1916908160001a9053506004611c49866000815181101515611bd657fe5b9060200101517f010000000000000000000000000000000000000000000000000000000000000090047f0100000000000000000000000000000000000000000000000000000000000000027f01000000000000000000000000000000000000000000000000000000000000009004611f92565b9060020a029350611cd5856001815181101515611c6257fe5b9060200101517f010000000000000000000000000000000000000000000000000000000000000090047f0100000000000000000000000000000000000000000000000000000000000000027f01000000000000000000000000000000000000000000000000000000000000009004611f92565b92508284177f0100000000000000000000000000000000000000000000000000000000000000029150817effffffffffffffffffffffffffffffffffffffffffffffffffffffffffffff191686179550600886600019169060020a90049550600281039050611acd565b876000602081101515611d4e57fe5b1a7f010000000000000000000000000000000000000000000000000000000000000002856000815181101515611d8057fe5b9060200101907effffffffffffffffffffffffffffffffffffffffffffffffffffffffffffff1916908160001a905350876001602081101515611dbf57fe5b1a7f010000000000000000000000000000000000000000000000000000000000000002856001815181101515611df157fe5b9060200101907effffffffffffffffffffffffffffffffffffffffffffffffffffffffffffff1916908160001a9053506004611ea8866000815181101515611e3557fe5b9060200101517f010000000000000000000000000000000000000000000000000000000000000090047f0100000000000000000000000000000000000000000000000000000000000000027f01000000000000000000000000000000000000000000000000000000000000009004611f92565b9060020a029350611f34856001815181101515611ec157fe5b9060200101517f010000000000000000000000000000000000000000000000000000000000000090047f0100000000000000000000000000000000000000000000000000000000000000027f01000000000000000000000000000000000000000000000000000000000000009004611f92565b92508284177f0100000000000000000000000000000000000000000000000000000000000000029150817effffffffffffffffffffffffffffffffffffffffffffffffffffffffffffff191686179550859650505050505050919050565b600081603011158015611fa6575060398211155b15611fb2576030820391505b81606111158015611fc4575060668211155b15611fd0576057820391505b819050919050565b6000606060008090505b83518160ff16101561210457612011848260ff1681518110151561200257fe5b906020019060200201516131af565b915060006039836040518082805190602001908083835b60208310151561204d5780518252602082019150602081019050602083039250612028565b6001836020036101000a03801982511681845116808217855250505050505090500191505090815260200160405180910390205414156120f95760016039836040518082805190602001908083835b6020831015156120c1578051825260208201915060208101905060208303925061209c565b6001836020036101000a0380198251168184511680821785525050505050509050019150509081526020016040518091039020819055505b600281019050611fe2565b600192505050919050565b600060606000606060008060606000612127896131af565b96506034548a189550612139866131af565b94506002858a6040518083805190602001908083835b602083101515612174578051825260208201915060208101905060208303925061214f565b6001836020036101000a0380198251168184511680821785525050505050509050018260001916600019168152602001925050506020604051808303816000865af11580156121c7573d6000803e3d6000fd5b5050506040513d60208110156121dc57600080fd5b810190808051906020019092919050505093506035548a1892506121ff836131af565b9150600283856040518083600019166000191681526020018260001916600019168152602001925050506020604051808303816000865af1158015612248573d6000803e3d6000fd5b5050506040513d602081101561225d57600080fd5b810190808051906020019092919050505090508097505050505050505092915050565b6122886132a3565b60026032806020026040519081016040528092919082603280156122c1576020028201915b8154815260200190600101908083116122ad575b5050505050905090565b6000806060806000806000806000600102965060026040519080825280601f01601f1916602001820160405280156123125781602001602082028038833980820191505090505b509550889450603f90505b60018111156125d657846001820381518110151561233757fe5b9060200101517f010000000000000000000000000000000000000000000000000000000000000090047f01000000000000000000000000000000000000000000000000000000000000000286600081518110151561239157fe5b9060200101907effffffffffffffffffffffffffffffffffffffffffffffffffffffffffffff1916908160001a90535084818151811015156123cf57fe5b9060200101517f010000000000000000000000000000000000000000000000000000000000000090047f01000000000000000000000000000000000000000000000000000000000000000286600181518110151561242957fe5b9060200101907effffffffffffffffffffffffffffffffffffffffffffffffffffffffffffff1916908160001a90535060046124e087600081518110151561246d57fe5b9060200101517f010000000000000000000000000000000000000000000000000000000000000090047f0100000000000000000000000000000000000000000000000000000000000000027f01000000000000000000000000000000000000000000000000000000000000009004611f92565b9060020a02935061256c8660018151811015156124f957fe5b9060200101517f010000000000000000000000000000000000000000000000000000000000000090047f0100000000000000000000000000000000000000000000000000000000000000027f01000000000000000000000000000000000000000000000000000000000000009004611f92565b92508284177f0100000000000000000000000000000000000000000000000000000000000000029150817effffffffffffffffffffffffffffffffffffffffffffffffffffffffffffff191687179650600887600019169060020a9004965060028103905061231d565b8460008151811015156125e557fe5b9060200101517f010000000000000000000000000000000000000000000000000000000000000090047f01000000000000000000000000000000000000000000000000000000000000000286600081518110151561263f57fe5b9060200101907effffffffffffffffffffffffffffffffffffffffffffffffffffffffffffff1916908160001a90535084600181518110151561267e57fe5b9060200101517f010000000000000000000000000000000000000000000000000000000000000090047f0100000000000000000000000000000000000000000000000000000000000000028660018151811015156126d857fe5b9060200101907effffffffffffffffffffffffffffffffffffffffffffffffffffffffffffff1916908160001a905350600461278f87600081518110151561271c57fe5b9060200101517f010000000000000000000000000000000000000000000000000000000000000090047f0100000000000000000000000000000000000000000000000000000000000000027f01000000000000000000000000000000000000000000000000000000000000009004611f92565b9060020a02935061281b8660018151811015156127a857fe5b9060200101517f010000000000000000000000000000000000000000000000000000000000000090047f0100000000000000000000000000000000000000000000000000000000000000027f01000000000000000000000000000000000000000000000000000000000000009004611f92565b92508284177f0100000000000000000000000000000000000000000000000000000000000000029150817effffffffffffffffffffffffffffffffffffffffffffffffffffffffffffff19168717965086975050505050505050919050565b60606000606080600080606060008060009450600093506040805190810160405280600581526020017f66616c73650000000000000000000000000000000000000000000000000000008152509250600091505b8b518260ff161015612a28576128fd8c8360ff168151811015156128ee57fe5b906020019060200201516131af565b96508a8581518110151561290d57fe5b906020019060200201516037886040518082805190602001908083835b60208310151561294f578051825260208201915060208101905060208303925061292a565b6001836020036101000a03801982511681845116808217855250505050505090500191505090815260200160405180910390208160001916905550898581518110151561299857fe5b90602001906020020151603b886040518082805190602001908083835b6020831015156129da57805182526020820191506020810190506020830392506129b5565b6001836020036101000a0380198251168184511680821785525050505050509050019150509081526020016040518091039020816000191690555084806001019550506002820191506128ce565b60009050612a4c8c82815181101515612a3d57fe5b906020019060200201516131af565b955060028c51039050612a758c82815181101515612a6657fe5b906020019060200201516131af565b965086603b886040518082805190602001908083835b602083101515612ab05780518252602082019150602081019050602083039250612a8b565b6001836020036101000a0380198251168184511680821785525050505050509050019150509081526020016040518091039020549850985050505050505050935093915050565b606080600080600060206040519080825280601f01601f191660200182016040528015612b335781602001602082028038833980820191505090505b509350600090505b6010811015612d5a576004808783602081101515612b5557fe5b1a7f0100000000000000000000000000000000000000000000000000000000000000027effffffffffffffffffffffffffffffffffffffffffffffffffffffffffffff19169060020a027effffffffffffffffffffffffffffffffffffffffffffffffffffffffffffff19169060020a9004915060048682602081101515612bd957fe5b1a7f0100000000000000000000000000000000000000000000000000000000000000027effffffffffffffffffffffffffffffffffffffffffffffffffffffffffffff19169060020a90049250612c52837f01000000000000000000000000000000000000000000000000000000000000009004610f62565b7f0100000000000000000000000000000000000000000000000000000000000000029250612ca2827f01000000000000000000000000000000000000000000000000000000000000009004610f62565b7f0100000000000000000000000000000000000000000000000000000000000000029150828482600202815181101515612cd857fe5b9060200101907effffffffffffffffffffffffffffffffffffffffffffffffffffffffffffff1916908160001a905350818460018360020201815181101515612d1d57fe5b9060200101907effffffffffffffffffffffffffffffffffffffffffffffffffffffffffffff1916908160001a9053508080600101915050612b3b565b83945050505050919050565b606060008060608491506000821415612da1577f30000000000000000000000000000000000000000000000000000000000000009250612e10565b5b6000821115612e0f576101008360019004811515612dbc57fe5b0460010292507f01000000000000000000000000000000000000000000000000000000000000006030600a84811515612df157fe5b06010260010283179250600a82811515612e0757fe5b049150612da2565b5b60008510158015612e22575060098511155b15612ed05760016040519080825280601f01601f191660200182016040528015612e5b5781602001602082028038833980820191505090505b509050826000602081101515612e6d57fe5b1a7f010000000000000000000000000000000000000000000000000000000000000002816000815181101515612e9f57fe5b9060200101907effffffffffffffffffffffffffffffffffffffffffffffffffffffffffffff1916908160001a9053505b600a8510158015612ee2575060638511155b156130015760026040519080825280601f01601f191660200182016040528015612f1b5781602001602082028038833980820191505090505b509050826000602081101515612f2d57fe5b1a7f010000000000000000000000000000000000000000000000000000000000000002816000815181101515612f5f57fe5b9060200101907effffffffffffffffffffffffffffffffffffffffffffffffffffffffffffff1916908160001a905350826001602081101515612f9e57fe5b1a7f010000000000000000000000000000000000000000000000000000000000000002816001815181101515612fd057fe5b9060200101907effffffffffffffffffffffffffffffffffffffffffffffffffffffffffffff1916908160001a9053505b6064851015801561301457506103e78511155b156131a45760036040519080825280601f01601f19166020018201604052801561304d5781602001602082028038833980820191505090505b50905082600060208110151561305f57fe5b1a7f01000000000000000000000000000000000000000000000000000000000000000281600081518110151561309157fe5b9060200101907effffffffffffffffffffffffffffffffffffffffffffffffffffffffffffff1916908160001a9053508260016020811015156130d057fe5b1a7f01000000000000000000000000000000000000000000000000000000000000000281600181518110151561310257fe5b9060200101907effffffffffffffffffffffffffffffffffffffffffffffffffffffffffffff1916908160001a90535082600260208110151561314157fe5b1a7f01000000000000000000000000000000000000000000000000000000000000000281600281518110151561317357fe5b9060200101907effffffffffffffffffffffffffffffffffffffffffffffffffffffffffffff1916908160001a9053505b809350505050919050565b606080600060206040519080825280601f01601f1916602001820160405280156131e85781602001602082028038833980820191505090505b509150600090505b602081101561327557838160208110151561320757fe5b1a7f010000000000000000000000000000000000000000000000000000000000000002828281518110151561323857fe5b9060200101907effffffffffffffffffffffffffffffffffffffffffffffffffffffffffffff1916908160001a90535080806001019150506131f0565b8192505050919050565b61064060405190810160405280603290602082028038833980820191505090505090565b61064060405190810160405280603290602082028038833980820191505090505090565b82603281019282156132f6579160200282015b828111156132f55782518255916020019190600101906132da565b5b5090506133039190613387565b5090565b828054600181600116156101000203166002900490600052602060002090601f016020900481019282601f1061334857805160ff1916838001178555613376565b82800160010185558215613376579182015b8281111561337557825182559160200191906001019061335a565b5b5090506133839190613387565b5090565b6133a991905b808211156133a557600081600090555060010161338d565b5090565b905600a165627a7a7230582091bdd4f57643c866c5aa0637948e1d6d6950328a693c96fc2e68dcea743b6e9e0029",
  "source": "pragma solidity ^0.4.4;\r\n//import \"github.com/ethereum/dapp-bin/library/linkedList.sol\";\r\n\r\ncontract MyContract{\r\n//    using DoublyLinkedList for DoublyLinkedList.data;\r\n//    DoublyLinkedList.data public revidlist; // use for storing revids\r\n    \r\n    address master_addr;\r\n    uint  x;\r\n    uint[50] rr;\r\n    bytes32 ipad = 0x3636363636363636363636363636363636363636363636363636363636363636;\r\n    bytes32 opad = 0x5c5c5c5c5c5c5c5c5c5c5c5c5c5c5c5c5c5c5c5c5c5c5c5c5c5c5c5c5c5c5c5c;\r\n    \r\n\tstring str;\r\n\t//string[] revidset;\r\n   \r\n    struct Node{\r\n        byte node_byte;\r\n        uint node_int;\r\n    }\r\n\r\n\r\n//Store index using struct.     \r\n/*    struct Pair{\r\n    \tstring label;\r\n    \tuint id;\r\n    }\r\n    \r\n    Pair[] public index;\r\n*/    \r\n\r\n//Store index using mapping.\r\n    mapping (string => bytes32)  index;\r\n    \r\n    mapping (string => uint)  index_add; // ++ Add index ++\r\n    \r\n    mapping (string => uint)  index_del; // ++ revid index ++\r\n    \r\n \tmapping (string => string) test;\r\n \t\r\n \tmapping (string => bytes32)  randomstring;  // ++ random string index ++\r\n \t\r\n\r\n\r\n    //mapping (uint =>  Node) nodes;\r\n    \r\n    function MyContract () {\r\n \t\ttest['hu']= 'construct';\r\n\t\ttest['gyt'] ='tratea';\r\n\t\tx = 888234;\r\n\r\n\r\n    }\r\n    \r\n\r\n\tfunction set (string str1) returns (string,uint) {\r\n\t\t\r\n\t\ttest[str1] = 'str1';\r\n\t\t\r\n/*\t\ttest['hu']= '122';\r\n\t\ttest['gyt'] ='433';\r\n\t\tx = 4567;\r\n\t*/\r\n\t\t\r\n\t\treturn (test[str1], x);\r\n\t}\r\n\t\r\n\tfunction read (string str1) returns (string,uint) {\r\n\t\treturn (test[str1], x);\r\n\t}\r\n\r\n\r\n/*        \r\n    \r\n//Since contract receives hash values as string type, thus each received hex-type value are regarded as string\r\n//and stored in string's ascii value. Therefore to enable comparison, we first need to transform string into its \r\n//original ascii value, and then transform contract's generated hash value into uint type, such that we can \r\n//compare them.\r\n       \r\n//to be continue...         \r\n\r\n\r\n//here each hash value need to be 32-bytes in length (ie, sha256)\r\nfunction hashtoascii(bytes32[] hash_input) returns (bytes32,string)  {\r\n\t\t\r\n\t\tuint memory hashlength =32;\r\n\t\t\r\n\t\tstring memory temp;\r\n\t\ttemp = Bytes32toString(hash_input);\r\n\t\t\r\n\t\r\n\t\t\r\n\t\tuint  left;\r\n\t\tuint  right;\r\n\t\tuint  value;\r\n\t\tuint  counter1 = 0;\r\n\t\t\r\n\t\t\r\n\t\tuint[32] memory  combine;\r\n\r\n\t\tuint counter2=0;  //which row stores in label\r\n\t\t\r\n\t\tfor(uint i=0; i<hash_input.length;i=i+2){\r\n\t\t\r\n\t\t\t\r\n\t\t\tcounter1 = 0; //which colunm stores in label\r\n\t\t\t\r\n\t\t\tfor(uint j=0; j<hashlength; j=j+2){\r\n\t\t\t\r\n\t\t\t\tleft = uint(hash_input[i][j]);\r\n\t\t\t\tright = uint(hash_input[i][j+1]);\r\n\t\t\t\t\r\n\t\t\t\tleft = strtoascii(left);\r\n\t\t\t\tright = strtoascii(right);\r\n\t\t\t\t\r\n\t\t\t\t\t\t\t\t\r\n\t\t\t\tvalue =left *16 + right;\r\n\t\t\t\r\n\t\t\t\tlabel[counter2][counter1] = value;\r\n\t\t\t\tcounter1++;\r\n\t\t\t}\r\n\t\t\r\n\t\t\tfor( j=0; j<hashlength; j=j+2){\r\n\t\t\t\r\n\t\t\t\tleft = uint(hash_input[i+1][j]);\r\n\t\t\t\tright = uint(hash_input[i+1][j+1]);\r\n\t\t\t\t\r\n\t\t\t\tleft = strtoascii(left);\r\n\t\t\t\tright = strtoascii(right);\r\n\t\t\t\t\r\n\t\t\t\t\t\t\t\t\r\n\t\t\t\tvalue =left *16 + right;\r\n\t\t\t\r\n\t\t\t\tlabel[counter2][counter1] = value;\r\n\t\t\t\tcounter1++;\r\n\t\t\t}\r\n\r\n\t\t\tcounter2 ++;\r\n\t\t\r\n\t\t}\r\n\t\t\r\n\t\tbytes32 hash_hex= sha256('h');\r\n\t//\tbytes32 hash2_hex= sha256('s');\r\n\t\tuint[32] memory  hash_value;\r\n\t\tstring flag ='false';\r\n\t\t\r\n\t\tfor(i=0;i<32;i++){\r\n\t\t\thash_value[i]=uint(hash_hex[i]);\r\n\t\t}\r\n \t\t\r\n\r\n\t\r\n\t\r\n    return (hash_input,temp);\r\n   //      return (label[0][0],label[1][0],label[counter2-1][0]);\r\n        }\r\n*/        \r\n\r\n\r\n/*\r\n  \r\n//decode received hash values (ie, string type) into original ASCII value\r\n    function strtoascii(uint num) returns (uint){\r\n\t\tif(0x30<= num && num <= 0x39){\r\n\t\t\tnum = num - 0x30;\r\n\t\t}\r\n\t\tif(0x61<= num && num <= 0x66){\r\n\t\t\tnum = num - 0x57;\r\n\t\t}\r\n\t\t\r\n\t\treturn num;\r\n    }\r\n */     \r\n\r\n\r\n//Store label-id pair into index.\r\nfunction storelabel(bytes32[] label, bytes32[] fid, bytes32[] ram) returns (string, bytes32){\r\n\t\r\n\tstring memory label_str;\r\n\tstring memory label_str2;\r\n\tuint counter = 0;  //points to which row in fid.\r\n\t\r\n\tuint where = 0;\r\n\tstring memory flag = 'false';\r\n\t\r\n//Note that here we only store the first 32 bytes of hash value in label, which are enough for\r\n//us to have a comparison and search correct files. Thus i is incremented by 2 each time, ie, i=i+2.\r\n\r\n\tfor(var i=0; i<label.length; i=i+2){\r\n\t\tlabel_str = Bytes32toString(label[i]);\r\n\t\tindex[label_str] = fid[counter];\r\n\t\trandomstring[label_str] = ram[counter];\r\n\t\tcounter ++;\r\n\t\t\r\n\t}\r\n\t\r\n\t\r\n\t\t\r\n\t//\tif(stringsEqual(label_str,test)){flag = 'true';}\r\n\t\t\r\n\t//\tfid_str = Bytes32toString(fid[0]);\r\n\t\t\r\n\t\r\n\t\r\n\tuint num = 0;\r\n\tlabel_str2  = Bytes32toString(label[num]);\r\n\tnum = label.length-2;\r\n\tlabel_str = Bytes32toString(label[num]);\r\n\t\r\n\r\n//\tstring memory test;\r\n//\ttest = Bytes32toString(label[label.length-2]);\r\n\treturn (label_str, randomstring[label_str]);\r\n\t \r\n\r\n//\treturn (fid);\r\n}\r\n\r\nfunction updateadd(bytes32[] labeladd, uint[] fid, bytes32[] revid) returns (uint[],uint,uint) {\r\n    \r\n    uint[50] memory r;\r\n    string memory label_str;\r\n    string memory revid_str;\r\n    uint count = 0;\r\n   // uint counter = 0;\r\n   \r\n   \tstring memory test = 'adf6d37ced7b66179674b1d9009a36d2';\r\n   \t\r\n   \r\n   \t\r\n    for (var i=0; i< labeladd.length; i=i+2){\r\n       // var it = revidlist.find(revid[i]);\r\n       revid_str = Bytes32toString(revid[i]);\r\n       \r\n       \r\n        if (index_del[revid_str] == 0)\r\n        {\r\n            r[count] = 0; // set r[i] = 0\r\n            label_str = Bytes32toString(labeladd[i]);\r\n            index_add[label_str] = fid[count];\r\n            //counter ++;\r\n            \r\n            if(count ==0){\r\n            \tuint test2 =  index_add[label_str];\r\n            }\r\n           \r\n            \r\n        }\r\n        else\r\n        {\r\n            r[count] = 1;  // set r[i] = 1\r\n            //revidlist.remove(it); // remove this revid\r\n            index_del[revid_str] = 0;\r\n            \r\n        }\r\n        count ++;\r\n    }\r\n    rr = r;\r\n    \r\n    \r\n    uint test_fid = index_add[test];\r\n    return (fid,test_fid,test2);\r\n}\r\n\r\nfunction read_r_value() returns (uint[50] aa) {\r\n    \r\n    return rr;\r\n\r\n\r\n}\r\n\r\n\r\nfunction updatedel(bytes32[] revid) returns (bool True) {\r\n    \r\n    string memory revid_str;\r\n    for(var i=0; i<revid.length; i=i+2){\r\n\t//\trevid_str = Bytes32toString(revid[i]);\r\n\t//   var it = revidlist.find(revid[i]);\r\n\t   revid_str = Bytes32toString(revid[i]);\r\n\t   if (index_del[revid_str] == 0)\r\n\t   {\r\n\t       //revidlist.append(revid[i]);\r\n\t       index_del[revid_str] = 1;\r\n\t      \r\n\t   }\r\n\t}\r\n   return true;\r\n\t//\trevidset.append()\r\n\t//\tindex[label_str] = fid[counter];\r\n\t//\tcounter ++;\r\n\t\r\n}\r\n\r\n\r\n\r\nfunction searchfile(string K1, string K2, uint c) returns (bytes32[50],uint) {\r\n\r\n\r\n\t\r\n\t//c is initialized from 0, this should be kept the same with the building index process in index.py.\r\n\t//uint c = 0;\r\n//\tuint re;\r\n\t//string memory c_str;\r\n\tstring memory\thash_re;\r\n\tuint roundc = 0;\t \r\n\tbytes32[50] memory search_re;\r\n\tbytes32 K1_32 = stringToBytes32(K1);\r\n\tbytes32 K2_32 = stringToBytes32(K2);\r\n\tbytes32 randoms;\r\n\t//bytes32[20] memory cipher;\r\n\t//bytes32[20] memory randomm;\r\n\t//bytes20 cipher;\r\n\tstring memory\ttttt;\r\n\tdo {\r\n\t    //c_str = uintToString(c);\r\n\t\t//hash_re = hashtostr32(sha256(K1,c_str));\r\n\t\thash_re = hmac(K1_32, c);\r\n\t\t//randoms = randomstring[hash_re];\r\n\t\t//randoms = randomstring[hash_re];\r\n\t\t\r\n\t\t//cipher = index[hash_re];\r\n\t\t//cipher[c] = index[hash_re];\r\n\t\t//tttt = Bytes32toString(index[hash_re]);\r\n\t\tsearch_re[roundc] = hmac10(K2_32, randomstring[hash_re]) ^ ciphertobytes32(index[hash_re]);\r\n\t\t\r\n\t\t//tttt = Bytes32toString(randoms);\r\n\t\tc++;\r\n\t\troundc++;\r\n\t}\r\n\twhile(randomstring[hash_re] != 0 && roundc <=47);  // due to gas limit constraint, we choose to run only 48 rounds of search.\r\n\tsearch_re[roundc-1] = 0;\r\n\r\n/*    while(index[hash_re] != 0)\r\n    {\r\n       c_str = uintToString(c);\r\n       hash_re = hashtostr32(sha256(K1,c_str));\r\n       search_re[c]=index[hash_re];\r\n       c++; \r\n    }\r\n*/\r\n\t//string memory\tc_temp = uintToString(0);\r\n\t//string memory\thash_temp = hashtostr32(sha256(K1,c_temp));\r\n \r\n \t//c_temp = uintToString(1);\r\n\t//string memory\thash_temp1 = hashtostr32(sha256(K1,c_temp));\r\n\t \r\n\t\r\n\r\n\treturn (search_re,c);\r\n}\r\n\r\n// search fucntion for the add index\r\n\r\nfunction searchfile_add(string K1_add, string K_minus) returns (uint[50],uint) {\r\n\r\n\r\n\t\r\n\t//c is initialized from 0, this should be kept the same with the building index process in addindex.py.\r\n\tuint c1 = 0;\r\n\tuint re;\r\n\t//string memory c_str;\r\n\t//string memory re_str;\r\n\tstring memory\thash_readd;\r\n\tstring memory\trevid_str1;\t \r\n\tuint[50] memory search_re;\r\n\tbytes32 K1_add32 = stringToBytes32(K1_add);\r\n\tbytes32 K_minus32 = stringToBytes32(K_minus);\r\n\t//hash_re = hmac(K1_add32, c);\r\n\t\r\n\t\r\n//\tstring memory test = hmac(K1_add32,0);\r\n\t\r\n\tdo {\r\n\t    hash_readd = hmac(K1_add32, c1);\r\n\t    //uint temp = index_add[hash_re];\r\n\t    //hash_re = hashtostr32(sha256(K1_add, c_str));\r\n\t    re = index_add[hash_readd];\r\n\t    revid_str1 = hmac(K_minus32, re);\r\n\t    if(index_del[revid_str1] == 0)\r\n\t    {\r\n\t    search_re[c1] = index_add[hash_readd];   \r\n\t    }\r\n\t    c1 ++;\r\n\t    //hash_re = hmac(K1_add32, c);\r\n\t    }\r\n    while(index_add[hash_readd] != 0);\r\n\r\n/*    while(index[hash_re] != 0)\r\n    {\r\n       c_str = uintToString(c);\r\n       hash_re = hashtostr32(sha256(K1,c_str));\r\n       search_re[c]=index[hash_re];\r\n       c++; \r\n    }\r\n\r\n\tstring memory\tc_temp = uintToString(0);\r\n\tstring memory\thash_temp = hashtostr32(sha256(K1_add,c_temp));\r\n \r\n \tc_temp = uintToString(1);\r\n\tstring memory\thash_temp1 = hashtostr32(sha256(K1_add,c_temp));\r\n\t \r\n*/\t\r\n\r\n\treturn (search_re,c1);\r\n}\r\n\r\nfunction getindex (string str) returns (bytes32){\r\n\r\n\treturn index[str];\r\n}\r\n\r\n\r\n//Convert contract's hash ASCII value into string type. For example, 0xaacf12d1 ==>a a c f 1 2 d 1. \r\n//Here each hash value is transformed into 64 bytes in length.\r\n/*\r\nfunction hashtostr64(bytes32  hash) returns (string){\r\n\tbytes memory str = new bytes(64);\r\n    byte left;\r\n    byte right;\r\n    \r\n    \r\n     \r\n//    bytes32  hash  =sha256('h'); \r\n \r\n\t  for(uint i=0;i<32;i++){\r\n\t\t  cef6f32c7919c23a6a016d49ab93daf8\r\n\t\tright = (hash[i]<<4) >>4;\r\n\t\tleft = (hash[i]>>4);\r\n\t\t\r\n\t\tleft=byte(asciitostring(uint(left)));\r\n\t\tright=byte(asciitostring(uint(right)));\r\n\t\t\r\n\t\tstr[2*i] = left;\r\n\t\tstr[2*i+1] =right;\r\n\r\n } \r\n//\treturn (hash,string(str));\r\n\t\treturn (string(str));\r\n}\r\n */    \r\n\r\n\r\n\r\n//Convert contract's hash ASCII value into string type. For example, 0xaacf12d1 ==>a a c f 1 2 d 1. \r\n//Here each hash value is transformed into 32 bytes in length. We drop the last 32 bytes since\r\n//the first 32 bytes are enough for us to have a comparison, and search correct file in index. \r\n//\r\n\r\nfunction hashtostr32(bytes32  hash) returns (string){\r\n\tbytes memory str = new bytes(32);\r\n    byte left;\r\n    byte right;\r\n    \r\n    \r\n     \r\n//    bytes32  hash  =sha256('h'); \r\n \r\n\t  for(uint i=0;i<16;i++){\r\n\t\t  \r\n\t\tright = (hash[i]<<4) >>4;\r\n\t\tleft = (hash[i]>>4);\r\n\t\t\r\n\t\tleft=byte(asciitostring(uint(left)));\r\n\t\tright=byte(asciitostring(uint(right)));\r\n\t\t\r\n\t\tstr[2*i] = left;\r\n\t\tstr[2*i+1] =right;\r\n\r\n } \r\n//\treturn (hash,string(str));\r\n\t\treturn (string(str));\r\n}\r\n\r\n\r\n \r\n \r\n \r\n//decode contract's hash ASCII value into string type\r\n    function asciitostring(uint num) returns (uint){\r\n\t\tif(0x00<= num && num <= 0x09){\r\n\t\t\tnum = num + 0x30;\r\n\t\t}\r\n\t\tif(0x0a<= num && num <= 0x0f){\r\n\t\t\tnum = num + 0x57;\r\n\t\t}\r\n\t\t\r\n\t\treturn num;\r\n    }\r\n \r\n \r\n \r\n //Transform uint-type into string-type. The uint-type input should not be larger than 999. Since the search result only consists of about 300 files generally.\r\n  function uintToString(uint value) constant returns (string) {\r\n \tbytes32 ret; \r\n \tuint v = value; \r\n \tbytes memory ret_str;\r\n    if (v == 0) {\r\n        ret = '0';\r\n    }\r\n    else { \r\n        while (v > 0) {\r\n            ret = bytes32(uint(ret) / (2 ** 8));\r\n            ret |= bytes32(((v % 10) + 48) * 2 ** (8 * 31));\r\n            v /= 10;\r\n        }\r\n    }\r\n    \r\n    if(value>= 0 && value<=9 ){ \r\n    \tret_str = new bytes(1);\r\n    \tret_str[0] = ret[0];\r\n    \t\r\n    }\r\n    if(value >= 10 && value <= 99){\r\n    \tret_str = new bytes(2);\r\n    \t\r\n    \tret_str[0] = ret[0];\r\n    \tret_str[1] = ret[1];\r\n    }\r\n    if(value >= 100 && value <= 999){\r\n    \tret_str = new bytes(3);\r\n    \tret_str[0] = ret[0];\r\n    \tret_str[1] = ret[1];\r\n    \tret_str[2] = ret[2];\r\n    }\r\n    \r\n    \r\n    return string(ret_str);\r\n}        \r\n \r\n    \r\n        \r\n        \r\n\tfunction Bytes32toString(bytes32 input)   returns (string){ \r\n\t\tbytes memory bytesString = new bytes(32);\r\n\t\t\r\n\t\tfor (uint i=0;i<32;i++){\r\n\t\t\tbytesString[i] = input[i];  //transform string into bytes array\r\n\t\t}\r\n\t\t\r\n\t\treturn string(bytesString);\t\t//transform bytes array into string\r\n\r\n\t}\r\n/*\t\r\n\tfunction Bytes20toString(bytes20 input)   returns (string){ \r\n\t\tbytes memory bytesString = new bytes(20);\r\n\t\t\r\n\t\tfor (uint i=0;i<20;i++){\r\n\t\t\tbytesString[i] = input[i];  //transform string into bytes array\r\n\t\t}\r\n\t\t\r\n\t\treturn string(bytesString);\t\t//transform bytes array into string\r\n\r\n\t}\r\n*/\t\r\n\t\r\n\tfunction stringsEqual(string memory _a, string memory _b) internal returns (bool) {\r\n\tbytes memory a = bytes(_a);\r\n\tbytes memory b = bytes(_b);\r\n\tif (a.length != b.length)\r\n\t\treturn false;\r\n\t// @todo unroll this loop \r\n\tfor (uint i = 0; i < a.length; i ++)\r\n\t\tif (a[i] != b[i])\r\n\t\t\treturn false;\r\n\treturn true;\r\n}\r\n\r\n    function hmac(bytes32 key, uint c) returns (string digest){\r\n        //bytes32 memory key32 = key\r\n        string memory c_str = uintToString(c);\r\n        bytes32 in32 = key ^ ipad;\r\n        string memory in32_str = Bytes32toString(in32);\r\n        bytes32 result = sha256(in32_str, c_str);\r\n        //string memory result_str = hashtostr32(result);\r\n        bytes32 out32 = key ^ opad;\r\n        string memory out32_str = Bytes32toString(out32);\r\n        bytes32 resultc = sha256(out32, result);\r\n        return hashtostr32(resultc);\r\n}   \r\n   function hmac10(bytes32 key, bytes32 ram) returns (bytes32 digest){\r\n        //bytes32 memory key32 = key\r\n        //string memory c_str = uintToString(c);\r\n        //bytes20 outputre;\r\n        //bytes32 outputre = 0x0000000000000000000000000000000000000000000000000000000000000000;\r\n        //byte rrr;\r\n        string memory ram_str = Bytes32toString(ram);\r\n        bytes32 in32 = key ^ ipad;\r\n        string memory in32_str = Bytes32toString(in32);\r\n        bytes32 result = sha256(in32_str, ram);\r\n        //string memory result_str = hashtostr32(result);\r\n        bytes32 out32 = key ^ opad;\r\n        string memory out32_str = Bytes32toString(out32);\r\n        bytes32 resultc = sha256(out32, result);\r\n        //for (uint i=19;i>=0;i--){\r\n\t\t//\trrr = resultc[i];\r\n\t\t//\toutputre = outputre | rrr;\r\n\t\t//\toutputre = outputre >>8;\r\n\t\t//\t\r\n\t\t\t  //transform into bytes20 array\r\n\t\t//}\r\n        return resultc;\r\n}\r\n\r\n/*\r\n function Bytes32toString(bytes32 input)   returns (string){ \r\n\t\tbytes memory bytesString = new bytes(32);\r\n\t\t\r\n    for (uint j=0; j<32; j++) {\r\n        byte char = byte(bytes32(uint(input) * 2 ** (8 * j)));\r\n        if (char != 0) {\r\n            bytesString[j] = char;\r\n        }\r\n\t}\r\n\t\r\n\treturn string(bytesString);\r\n    }\r\n*/ \r\n\r\n\r\n   function stringtobyte(uint t) returns (uint){\r\n        if(0x30<= t && t <= 0x39){\r\n            t = t - 0x30;\r\n        }\r\n        if(0x61<= t && t <= 0x66){\r\n            t = t - 0x57;\r\n        }\r\n        return t;\r\n    }\r\n   function stringToBytes32(string memory source) returns (bytes32) {\r\n    //string memory source = \"029238f56f3af43959ce4a51d7b5c7ab7595fe0b48fc4c99ec59a1bd2281f606\";\r\n    //bytes memory ss = bytes(source);\r\n    //assembly {\r\n    //    result := mload(byte(33,source))\r\n    //}\r\n    bytes32 result = 0x0000000000000000000000000000000000000000000000000000000000000000;\r\n    bytes memory ss = new bytes(2);\r\n    bytes memory resultc = bytes(source);\r\n    uint resleft;\r\n    uint resright;\r\n    //uint out;\r\n    byte output;\r\n    for (uint i = 63; i > 1; i=i-2 ){\r\n        ss[0] = resultc[i-1];\r\n        ss[1] = resultc[i];\r\n        resleft = stringtobyte(uint(ss[0])) <<4 ;\r\n        resright = stringtobyte(uint(ss[1]));\r\n        //out = resleft | resright;\r\n        output = byte(resleft | resright);\r\n        result =  result | output;\r\n\r\n        result = result >>8;\r\n\r\n        //result =  result | output;\r\n        \r\n    }\r\n    ss[0] = resultc[0];\r\n    ss[1] = resultc[1];\r\n    resleft = stringtobyte(uint(ss[0])) <<4 ;\r\n    resright = stringtobyte(uint(ss[1]));\r\n    //out = resleft | resright;\r\n    output = byte(resleft | resright);\r\n    result =  result | output;\r\n    //result = result | output;\r\n    /*\r\n    bytes memory ss = new bytes(2);\r\n    //uint[] memory res = new  uint[2];\r\n    uint resleft;\r\n    uint resright;\r\n    uint out;\r\n    byte output;\r\n    bytes32 result = 0x0000000000000000000000000000000000000000000000000000000000000000;\r\n    //bytes memory res1 = new  bytes(32);\r\n    \r\n    //bytes2 you = 0x3333;\r\n    //you = you << 4;\r\n    \r\n    ss[0] = resultc[2];\r\n    ss[1] = resultc[3];\r\n    \r\n    resleft = stringtobyte(uint(ss[0])) <<4 ;\r\n    resright = stringtobyte(uint(ss[1]));\r\n    out = resleft | resright;\r\n    output = byte(out);\r\n    result =  result | output;\r\n    result = result >>8;\r\n    result =  result | output;\r\n    //result[0] = output;\r\n    \r\n    //res = res <<4;\r\n    //output = bytes2(res);\r\n    //output[0] = res[1];\r\n    //res1 = res<<4;\r\n    //res[1] = stringtobyte(uint(ss[1]));\r\n    //res[0] = bytes(q);\r\n    */\r\n    return result;\r\n    \r\n    \r\n}\r\n   function ciphertobytes32 (bytes32 inc) returns (bytes32)\r\n   {\r\n     //bytes32 inc = 0x3239386661623836323131353733333031663932316238323238353364353466;  \r\n     bytes32 result = 0x0000000000000000000000000000000000000000000000000000000000000000;\r\n     bytes memory ss = new bytes(2);\r\n     //ss[0] = inc[30];\r\n    // ss[1] = inc[31];\r\n     uint resleft;\r\n     uint resright;\r\n     byte output;\r\n     for (var i = 31; i >1 ; i=i-2) {\r\n        ss[0] = inc[i-1];\r\n        ss[1] = inc[i];\r\n        resleft = stringtobyte(uint(ss[0])) <<4 ;\r\n        resright = stringtobyte(uint(ss[1]));\r\n        //out = resleft | resright;\r\n        output = byte(resleft | resright);\r\n        result =  result | output;\r\n\r\n        result = result >>8; \r\n     }\r\n     ss[0] = inc[0];\r\n     ss[1] = inc[1];\r\n     resleft = stringtobyte(uint(ss[0])) <<4 ;\r\n     resright = stringtobyte(uint(ss[1]));\r\n     //out = resleft | resright;\r\n     output = byte(resleft | resright);\r\n     result =  result | output;\r\n     return result;\r\n       \r\n   }\r\n}\r\n \r\n\r\n\r\n\r\n\r\n\r\n",
  "sourcePath": "C:\\Users\\yuefengdu2\\Desktop\\smart_contract\\private\\contracts\\MyContract.sol",
  "compiler": {
    "name": "solc",
    "version": "0.4.24+commit.e67f0147.Emscripten.clang"
  },
  "schemaVersion": "2.0.1",
  "updatedAt": "2018-09-05T04:06:56.787Z"
}